:100000000C944C000C9469000C9469000C946900E9
:100010000C9469000C9469000C9469000C946900BC
:100020000C9469000C9469000C9469000C946900AC
:100030000C9469000C9469000C9469000C9469009C
:100040000C9469000C9469000C9469000C9469008C
:100050000C9469000C9469000C9469000C9469007C
:100060000C9469000C9469000C9469000C9469006C
:100070000C9469000C9469000C9469000C9469005C
:100080000C9469000C9469000C9469000C9469004C
:100090000C9469000C94690011241FBECFEFD4E0CA
:1000A000DEBFCDBF11E0A0E0B1E0EEEFF0E002C0B6
:1000B00005900D92A030B107D9F711E0A0E0B1E0B2
:1000C00001C01D92A030B107E1F70E946B000C94B3
:1000D0007D000C9400008FEF84B915B885B9EFE46A
:1000E000F3EC3197F1F700C0000015B8EFE4F3EC42
:0E00F0003197F1F700C00000F1CFF894FFCF78
:00000001FF
